:100000000C945F030C94AF140C9488140C94870325
:100010000C9487030C9487030C9487030C94870338
:100020000C9487030C9487030C9487030C94870328
:100030000C9487030C9487030C9487030C94870318
:100040000C943E140C9487030C9487030C94870340
:100050000C9487030C9487030C9487030C948703F8
:100060000C94D6140C94870300407A10F35A00A025
:10007000724E18090010A5D4E80000E87648170071
:1000800000E40B54020000CA9A3B000000E1F505B1
:10009000000080969800000040420F000000A086FB
:1000A00001000000102700000000E803000000002D
:1000B0006400000000000A000000000001000000D1
:1000C00000002C76D888DC674F0823DFC1DFAE59EB
:1000D000E1B1B796E5E3E453C63AE651997696E87E
:1000E000E6C28426EB898C9B62ED407C6FFCEFBC02
:1000F0009C9F40F2BAA56FA5F490055A2AF75C932D
:100100006B6CF9676DC11BFCE0E40D47FEF520E662
:10011000B500D0ED902E0300943577050080841E45
:10012000080000204E0A000000C80C333333330FA0
:10013000986E12831141EF8D2114893BE65516CF3D
:10014000FEE6DB18D1844B381BF77C1D901DA4BB49
:10015000E424203284725E228100C9F124ECA1E5FE
:100160003D2700000000003E5B4F5B3E3E6B4F6B47
:100170003E1C3E7C3E1C183C7E3C181C577D571C88
:100180001C5E7F5E1C00183C1800FFE7C3E7FF0001
:1001900018241800FFE7DBE7FF30483A060E26294F
:1001A000792926407F050507407F05253F5A3CE712
:1001B0003C5A7F3E1C1C08081C1C3E7F14227F22D8
:1001C000145F5F005F5F06097F017F006689956AA3
:1001D000606060606094A2FFA29408047E0408102E
:1001E000207E201008082A1C08081C2A08081E1057
:1001F0001010100C1E0C1E0C30383E3830060E3E0F
:100200000E06000000000000005F0000000700076D
:1002100000147F147F14242A7F2A12231308646297
:1002200036495620500008070300001C22410000F8
:1002300041221C002A1C7F1C2A08083E0808008056
:1002400070300008080808080000606000201008EE
:1002500004023E5149453E00427F400072494949EF
:10026000462141494D331814127F10274545453921
:100270003C4A494931412111090736494949364625
:100280004949291E00001400000040340000000805
:1002900014224114141414140041221408020159A8
:1002A00009063E415D594E7C1211127C7F49494935
:1002B000363E414141227F4141413E7F49494941CA
:1002C0007F090909013E414151737F0808087F00F9
:1002D000417F41002040413F017F081422417F407F
:1002E0004040407F021C027F7F0408107F3E414156
:1002F000413E7F090909063E4151215E7F091929C6
:1003000046264949493203017F01033F4040403FAF
:100310001F2040201F3F4038403F631408146303F0
:10032000047804036159494D43007F41414102046F
:10033000081020004141417F040201020440404076
:100340004040000307080020545478407F2844446C
:10035000383844444428384444287F385454541886
:1003600000087E090218A4A49C787F080404780081
:10037000447D40002040403D007F10284400004163
:100380007F40007C047804787C0804047838444476
:100390004438FC1824241818242418FC7C0804046D
:1003A00008485454542404043F44243C4040207CD6
:1003B0001C2040201C3C4030403C44281028444C29
:1003C0009090907C4464544C4400083641000000F6
:1003D000770000004136080002010204023C262397
:1003E000263C1EA1A161123A4040207A385454554F
:1003F0005921555579412254547842215554784019
:1004000020545579400C1E527212395555555939A0
:100410005454545939555454580000457C410002F5
:10042000457D420001457C407D1211127DF028255A
:1004300028F07C545545002054547C547C0A097F94
:100440004932494949323A4444443A324A484830A8
:100450003A4141217A3A42402078009DA0A07D3D5A
:100460004242423D3D4040403D3C24FF2424487EE2
:100470004943662B2FFC2F2BFF0929F620C0887ECD
:10048000090320545479410000447D413048484AD2
:1004900032384040227A007A0A0A727D0D19317D85
:1004A0002629292F28262929292630484D40203859
:1004B0000808080808080808382F10C8ACBA2F1018
:1004C0002834FA00007B000008142A142222142A7F
:1004D00014085500550055AA55AA55AAFF55FF55B1
:1004E000FF000000FF00101010FF00141414FF00A4
:1004F0001010FF00FF1010F010F0141414FC001482
:1005000014F700FF0000FF00FF1414F404FC14149F
:1005100017101F10101F101F1414141F001010109C
:10052000F0000000001F101010101F10101010F02D
:1005300010000000FF101010101010101010FF100D
:10054000000000FF140000FF00FF00001F10170054
:1005500000FC04F414141710171414F404F400002D
:10056000FF00F714141414141414F700F7141414DF
:10057000171410101F101F141414F4141010F0107E
:10058000F000001F101F0000001F14000000FC14EA
:100590000000F010F01010FF10FF141414FF1410DE
:1005A00010101F00000000F010FFFFFFFFFFF0F031
:1005B000F0F0F0FFFFFF0000000000FFFF0F0F0F43
:1005C0000F0F3844443844FC4A4A4A347E0202063B
:1005D00006027E027E0263554941633844443C046E
:1005E000407E201E2006027E020299A5E7A5991CE6
:1005F0002A492A1C4C7201724C304A4D4D30304809
:10060000784830BC625A463D3E494949007E010166
:10061000017E2A2A2A2A2A44445F444440514A44FB
:100620004040444A51400000FF0103E080FF0000C9
:1006300008086B6B083612362436060F090F0600C1
:100640000018180000001010003040FF0101001FCA
:1006500001011E00191D1712003C3C3C3C0000002B
:10066000000000000000240027002A000000000015
:10067000250028002B000000000023002600290090
:100680000404040404040404020202020202030338
:100690000303030301020408102040800102040840
:1006A00010200102040810200000000800020100D0
:1006B000000304070000000000000000F5151124ED
:1006C0001FBECFEFD8E0DEBFCDBF15E0A0E0B1E0A8
:1006D000E6E8FAE402C005900D92A63DB107D9F70D
:1006E00026E0A6EDB5E001C01D92AA3EB207E1F7F3
:1006F00013E0CFE5D3E004C02197FE010E94321F32
:10070000CE35D107C9F70E943A160C9441250C94B6
:10071000000028E030E040E8E091D806F091D906EA
:1007200050819091DF06909595239083E091D606B5
:10073000F091D7069091DE06582F542389F050810E
:10074000952B9083E091D806F091D9069081509135
:10075000DF06952B9083469521503109E9F60895DF
:10076000508190959523EDCF08950895833081F0C1
:1007700028F4813099F08230A9F008958730A9F0EB
:100780008830C9F08430B1F4809180008F7D03C03F
:10079000809180008F7780938000089584B58F7753
:1007A00084BD089584B58F7DFBCF8091B0008F7795
:1007B0008093B00008958091B0008F7DF9CFCF93E2
:1007C000DF93282F30E0F901E855F94F8491F901C2
:1007D000EC56F94FD491F901E058F94FC491CC236C
:1007E000A1F081110E94B603EC2FF0E0EE0FFF1F85
:1007F000EA58F94FA591B491EC91ED2381E090E096
:1008000009F480E0DF91CF91089580E090E0FACF85
:100810001F93CF93DF93282F30E0F901E855F94F6C
:100820008491F901EC56F94FD491F901E058F94F50
:10083000C491CC23A9F0162F81110E94B603EC2F8E
:10084000F0E0EE0FFF1FE459F94FA591B4918FB777
:10085000F894EC91111108C0D095DE23DC938FBF82
:10086000DF91CF911F910895DE2BF8CFCF93DF93C7
:1008700090E0FC01EC56F94F24918058994FFC010F
:1008800084918823C9F090E0880F991FFC01EE59EC
:10089000F94FA591B491FC01E459F94FC591D49158
:1008A00061110DC09FB7F8948C91209582238C9391
:1008B0008881282328839FBFDF91CF9108956230DC
:1008C00051F49FB7F8943C91822F809583238C93A9
:1008D000E8812E2BEFCF8FB7F894EC912E2B2C9331
:1008E0008FBFEACF3FB7F89480914D0690914E06A6
:1008F000A0914F06B091500626B5A89B05C02F3F8A
:1009000019F00196A11DB11D3FBFBA2FA92F982F35
:100910008827BC01CD01620F711D811D911D42E030
:10092000660F771F881F991F4A95D1F708958F92F8
:100930009F92AF92BF92CF92DF92EF92FF924B01C4
:100940005C010E9472046B017C010E9472046C19AC
:100950007D098E099F09683E734081059105A8F3C2
:1009600021E0821A9108A108B10888EEC80E83E040
:10097000D81EE11CF11C81149104A104B10429F7D3
:10098000FF90EF90DF90CF90BF90AF909F908F90AF
:1009900008952FB7F8946091490670914A068091A6
:1009A0004B0690914C062FBF0895CF92DF92EF92A5
:1009B000FF920F931F93CF93DF9383E00E94DF0397
:1009C0008C0180914006813009F45EC058F082307D
:1009D000F9F0DF91CF911F910F91FF90EF90DF9091
:1009E000CF9008950130110559F480910A018823B0
:1009F00019F0815080930A0181E080930901E9CFC9
:100A0000012BD1F780910A018230B0F78F5FF2CFCE
:100A10000130110501F5209104013091050180910B
:100A2000060190910701A901481B590B4F3F510541
:100A300009F05CF42F5F3F4F3093050120930401D0
:100A40000197909307018093060181E080933F0610
:100A500080930801BECF012BC1F7809106019091D0
:100A600007012091040130910501AC01421B530B99
:100A70004F3F510509F04CF72150310930930501E2
:100A8000209304010196DDCF0E94C904C090D605D1
:100A9000D090D705E090D805F090D9056C197D0964
:100AA0008E099F09C1E0643F71408105910508F4FA
:100AB000C5E00E94C9046C197D098E099F096A3F2F
:100AC00071058105910508F4CAE00115110559F574
:100AD000D0E0409104015091050120910601309130
:100AE00007014C175D071CF42C173D0764F04C1BE5
:100AF0005D0B50930501409304012C1B3D0B30937B
:100B000007012093060181E080933F06809308014E
:100B10000E94C9046093D6057093D7058093D805C9
:100B20009093D90556CF0130110569F78C2F90E0CD
:100B30004FEF50E0481B590B209104013091050103
:100B40006091060170910701421753071CF4461784
:100B50005707CCF2280F391F309305012093040169
:100B6000860F971F9093070180930601CCCF0895BD
:100B7000AF92BF92CF92DF92EF92FF920F931F93AB
:100B8000CF93DF936C017B018B01040F151FEB01E9
:100B90005E01AE18BF08C017D10759F06991D601A0
:100BA000ED91FC910190F081E02DC6010995892B12
:100BB00079F7C501DF91CF911F910F91FF90EF90D1
:100BC000DF90CF90BF90AF9008950F931F93CF9376
:100BD000DF93EC018E89823009F453C0833009F42D
:100BE000ACC0813009F05CC0EC81FD81E41BF50BE9
:100BF000AF01421B530B77FD3FC08E819F81681769
:100C00007907D4F557FF04C0240F351F50E040E0AA
:100C10008C819D81FA01E20FF31F8E179F071CF450
:100C20009C01241B350B1216130634F5FB0177FDCE
:100C30003796A3E0F595E795AA95E1F7F695FE2F8F
:100C4000EE27F795E795E40FF51FE45FFE4F677019
:100C5000772781E090E001C0880F6A95EAF7482F76
:100C60000130110509F472C008F47CC02E0F3F1F3B
:100C70000230110509F483C0DF91CF911F910F91CC
:100C80000895AC81BD81CD01861B970BBC016150DD
:100C90007109EE81FF81E41BF50BAF01421B530B81
:100CA00077FDEACF8C819D81681779072CF757FF74
:100CB00004C0240F351F50E040E08E819F81FA016F
:100CC000E20FF31F8E179F071CF49C01241B350BAA
:100CD000121613068CF6922FA42FA695A695A6950C
:100CE00080E8A89FD0011124A60FB71FA45FBE4FB4
:100CF000477009F457C058E0541B452F652F70E02A
:100D0000FB01E65EFA4F8081251708F0B0C0621B38
:100D100071092FEF30E002C0359527956A95E2F70B
:100D2000822301301105A9F108F464C002301105D5
:100D300009F0A2CF2C9182272EC0AE81BF81CD01B8
:100D4000861B970BBC016150710955CF2E0F3F1FB9
:100D5000E217F30709F490CF8191DF011197842BFB
:100D60008C93F6CF80952E0F3F1FE217F30709F4FF
:100D700083CF9191DF01119798239C93F6CFE217CF
:100D8000F30709F479CF8191DF01119784278C93C0
:100D9000F6CF2C91822B8C93941708F46DCF941B73
:100DA000A058BF4F983008F447C00230110531F504
:100DB000FD01892F208120952083E058FF4F885026
:100DC0008830C0F728EF290F26952695269530E024
:100DD0002F5F3F4F3695322F222737952795A20F49
:100DE000B31F977009F448CFE92FF0E0EE5EFA4F99
:100DF000808132C080952C918223CDCF81E001305B
:100E0000110509F080E08195FD01292F8083E058CC
:100E1000FF4F28502830D0F728EF290F2695269528
:100E2000269530E02F5F3F4F3695322F222737959A
:100E30002795A20FB31F9770992309F41DCFE92FAF
:100E4000F0E0EE5EFA4F80810130110541F058F07C
:100E50000230110509F010CF9C91892702C09C91A6
:100E6000892B8C9309CF80959C918923FACF0130EF
:100E7000110509F48ECF08F4BDCF0230110509F435
:100E800059CF8DCF0F931F93CF93DF93EC018E89B2
:100E9000823009F45EC0833009F4B5C0813009F0B6
:100EA00067C0AC81BD81CD01841B950BAC01415065
:100EB000510957FD49C08C819D81481759070CF095
:100EC00043C077FF04C0260F371F70E060E08E81BB
:100ED0009F81FB01E20FF31F8E179F071CF49C01FB
:100EE000261B370B121613067CF5922FA62FA695FC
:100EF000A695A69580E8A89FD0011124A40FB51F40
:100F0000A45FBE4F677009F48FC048E0461B642F92
:100F100070E0FB01E65EFA4F8081241708F002C101
:100F2000621B71092FEF30E002C0359527956A9555
:100F3000E2F782230130110509F46DC008F49CC06A
:100F40000230110509F4F8C0DF91CF911F910F9184
:100F50000895EC81FD81E61BF70BAE81BF81CD01C9
:100F6000841B950BAC0141505109BF01621B730BEF
:100F700057FDEACF8E819F81481759072CF777FFDD
:100F800004C0260F371F70E060E08C819D81FB015B
:100F9000E20FF31F8E179F071CF49C01261B370BD3
:100FA000121613068CF6FA0157FD379693E0F59565
:100FB000E7959A95E1F7F695FE2FEE27F795E795D9
:100FC000E60FF71FE45FFE4F4770552781E090E082
:100FD00001C0880F4A95EAF7482F0130110509F43E
:100FE00088C008F492C02E0F3F1F0230110509F08F
:100FF000ABCFE217F30709F4A7CF8191DF01119777
:1010000084278C93F6CFEE81FF81E61BF70BBF019F
:10101000621B730B4ECF2C91822B8C93941708F488
:1010200093CF941BA058BF4F983008F447C00230AC
:10103000110531F5FD01892F208120952083E0588D
:10104000FF4F88508830C0F728EF290F2695269546
:10105000269530E02F5F3F4F3695322F2227379568
:101060002795A20FB31F977009F46ECFE92FF0E018
:10107000EE5EFA4F808132C080952C918223CDCFD5
:1010800081E00130110509F080E08195FD01292FF3
:101090008083E058FF4F28502830D0F728EF290FE1
:1010A00026952695269530E02F5F3F4F3695322FB7
:1010B000222737952795A20FB31F9770992309F41C
:1010C00043CFE92FF0E0EE5EFA4F80810130110549
:1010D00041F058F00230110509F036CF9C91892774
:1010E00002C09C91892B8C932FCF80959C91892352
:1010F000FACF2E0F3F1FE217F30709F425CF819196
:10110000DF011197842B8C93F6CF80952E0F3F1F14
:101110002E173F0709F418CF9191DF0111979823FB
:101120009C93F6CF0130110509F475CF08F4A4CFD4
:101130000230110509F075CF2C9182276ECFDC01AA
:1011400077FD67C018968D919C911997681779075C
:101150000CF05FC057FD5DC01A968D919C911B9756
:10116000481759070CF055C056968C915697823007
:10117000B9F0833041F1813049F414968D919C91FE
:10118000841B950BAB01BC01615071092130310505
:1011900021F108F43FC02230310509F458C0089508
:1011A0001496ED91FC911597E61BF70BBF0161506A
:1011B000710916968D919C91FC01E41BF50BAF0112
:1011C00041505109E3CF16968D919C91861B970B48
:1011D000BA01AC0141505109D9CFFA0157FD3796F8
:1011E000A3E0F595E795AA95E1F7F695FE2FEE2792
:1011F000F795E795E60FF71FE45FFE4F4770552719
:1012000021E030E001C0220F4A95EAF78081822B6D
:1012100080830895FA0157FD379623E0F595E79509
:101220002A95E1F7F695FE2FEE27F795E795E60F5D
:10123000F71FE45FFE4F4770552781E090E001C043
:10124000880F4A95EAF7809590818923E1CFFA01CA
:1012500057FD379683E0F595E7958A95E1F7F69582
:10126000FE2FEE27F795E795E60FF71FE45FFE4F99
:101270004770552721E030E001C0220F4A95EAF778
:1012800080818227C5CF0895FC016370668B8481BD
:10129000958126813781613039F0633029F091875B
:1012A00080873387228708953187208793878287B5
:1012B00008952F923F924F925F926F927F928F92FA
:1012C0009F92AF92BF92CF92DF92EF92FF920F93D5
:1012D0001F93CF93DF93CDB7DEB76A970FB6F8941D
:1012E000DEBF0FBECDBF9A8F898F7A8369834A0193
:1012F000D22E18870F833701BC2CDC0159962D9113
:101300003C915A972115310509F015C118968D9118
:101310009C911997681779070CF0D7C11A968D918F
:101320009C91481759070CF0D0C14C2C512CB6E0B9
:10133000CB9E600D711D11247C876B8716161706D6
:101340000CF0C3C1EA2DF0E0FA87E98793E0EE0FD5
:10135000FF1F9A95E1F7F88BEF87CF01840F951F58
:10136000181619060CF0B1C1A98DBA8D58968C913A
:10137000811104C0BFEABD1508F4D394A98DBA8DBC
:10138000ED91FC9111970284F385E02DCD01099533
:10139000B5E0DB9EC0011124E981FA81FC83EB8377
:1013A000312C212C9C012E593E4F388F2F8B4A2DEA
:1013B00050E05E8B4D8BEF89F88DE20DF31D44916B
:1013C0009E828D82D12CC12C69817A81620D731D20
:1013D0007A8B698B842F90E09C8B8B8BE98DFA8DB7
:1013E000A081B18140FF82C0F1E0BF126FC0AF1297
:1013F0006DC01C96ED91FC912F813885A4014C0D98
:101400005D1D69897A89898D9A8D0995EB89FC8999
:10141000F595E7954E2F5FEFC51AD50A6D817E8150
:101420008D899E89680F791F7E836D8398E0C91628
:10143000D10481F6AFEF2A1A3A0AEB81FC81E40D60
:10144000F51DFC83EB83F5E02F16310409F0B3CFD3
:101450002F81388526153705B9F0A98DBA8DED9104
:10146000FC91B1E0BB1257C0AB1255C069817A81C3
:101470006B5F7F4F0088F189E02D830128E030E029
:10148000A401898D9A8D0995A98DBA8DED91FC9154
:1014900011970688F789E02DCD016A960FB6F8946A
:1014A000DEBF0FBECDBFDF91CF911F910F91FF9097
:1014B000EF90DF90CF90BF90AF909F908F907F90F4
:1014C0006F905F904F903F902F9009941E96ED91F2
:1014D000FC91EF80F88409851A8592014D815E8127
:1014E0006B817C81898D9A8D099590CF2F8138856C
:1014F0002615370509F48ACF31E0B31207C0A312CD
:1015000005C01C96ED91FC91930178CF1E96ED914C
:10151000FC917301E0CF6B857C85641975090684A5
:10152000F785E02D73010F8518899201A401898D3B
:101530009A8D0995A9CFF9013496949132974591E6
:101540005491D91AB7E0DB9E400D511D1124F901C9
:10155000259134913C8B2B8BFA0125903490FA0124
:101560003296749031963491398B329664903196DC
:10157000449041E04C1518F04A1508F07FC0662DE4
:10158000062C000C770B7C836B83842D042C000CC1
:10159000990B9E838D83A98DBA8DED91FC91119746
:1015A0000284F385E02DCD010995512CD12CC12C5D
:1015B000EA2DF0E0FA87E9872B2D30E03C872B8776
:1015C000A401440D511D47FC5A95588F4F8B6981DA
:1015D0007A81660D711D67FC7A957E876D877989A2
:1015E000C71608F051CF2C2D30E04D815E81420F9F
:1015F000531FA985BA854A9FC0014B9F900D5A9FE2
:10160000900D1124FC01E80DF91DF88BEF87852D55
:10161000612C4F89588D420F531F5E8B4D8B671481
:1016200008F050C044244394480E877041F4C1012F
:101630000196EB89FC89E20DF31DD4901C01D7FEC5
:1016400019C0A98DBA8DED91FC91662D70E0B1E0C5
:10165000BB1219C0AB1217C02D853E85620F731FD8
:101660000484F585E02D2F8138854D895E89898D2B
:101670009A8D0995DD0C6394842DD1CF1E821D8235
:101680001C821B8288CF4B815C81640F751FAB85E8
:10169000BC856A9FC0016B9F900D7A9F900D1124AD
:1016A00069817A81680F791F0684F785E02DEF80C4
:1016B000F88409851A859D014F855889898D9A8DF1
:1016C0000995D8CF570CC3948ACF6A960FB6F89471
:1016D000DEBF0FBECDBFDF91CF911F910F91FF9065
:1016E000EF90DF90CF90BF90AF909F908F907F90C2
:1016F0006F905F904F903F902F9008958F929F92A0
:10170000AF92CF92EF92FF920F931F93CF93DF93FD
:10171000EC01262F898D9A8D009709F051C06A300F
:10172000D1F41D861C868D8948E0849F9001112488
:101730008E859F85820F931F9F878E8781E090E023
:10174000DF91CF911F910F91FF90EF90CF90AF90CD
:101750009F908F9008956D3089F3CC88AD888F89E4
:101760008823C1F08C859D8536E0C39E800D911D38
:101770001124488559854817590764F44E855F85BB
:101780001D861C8638E0A39EC0011124840F951F7E
:101790009F878E87EA88FB88088919894E855F852F
:1017A0006C857D85CE010E9459092C898C859D858B
:1017B00046E0249F800D911D11249D878C87BECF0C
:1017C0006A3069F41D861C86FC013896E4912D89E7
:1017D0008E859F85E29F800D911D1124ADCF6D30C8
:1017E00009F4ACCFFC0134963491631708F4A6CF0A
:1017F0003296E491E61708F4A1CFFC013296859069
:101800009490462F431B342F47E0349F800C911C4B
:101810001124F401329634913196E4913323A9F1E5
:10182000EE2399F1CC88F4013596E491AD884F8987
:10183000442301F10E2E000CFF0BE30FF11DCE9E91
:10184000A001CF9E500D11246C857D85460F571F3A
:1018500068857985641775076CF44E855F851D86EC
:101860001C86FC013896E491AE9E400D511D11245A
:101870005F874E87EA88FB88088919894E855F85CE
:101880006C857D85CE010E945909F4013496E4915E
:101890002C898C859D85E29F800D911D11248DCF13
:1018A0006F927F928F929F92AF92BF92CF92DF9270
:1018B000EF92FF920F931F93CF93DF93EC016B0195
:1018C0005A0139014801E881F9810284F385E02D4C
:1018D0000995E881F9810288F389E02D8701930158
:1018E000A501B601CE010995A501480D591D41502C
:1018F0005109E881F9810288F389E02D9301B6014D
:10190000CE010995E881F9810088F189E02D9401E3
:10191000A501B601CE010995C60CD71CB6016150D0
:101920007109E881F9810088F189E02D9401A50110
:10193000CE010995E881F9810688F789E02DCE016D
:10194000DF91CF911F910F91FF90EF90DF90CF909B
:10195000BF90AF909F908F907F906F9009946F92FF
:101960007F928F929F92AF92BF92CF92DF92EF922F
:10197000FF920F931F93CF93DF935C01EB016A01FA
:10198000490138018701DC01ED91FC916217730771
:1019900019F5641675062CF0962D872D3A01C92E7F
:1019A000D82E9601261937092F5F3F4F048CF58DED
:1019B000E02DA301BE01C5010995DF91CF911F91D3
:1019C0000F91FF90EF90DF90CF90BF90AF909F90DE
:1019D0008F907F906F9008954615570591F42617C4
:1019E000370724F0892D4B01C22FD82F9E012819CB
:1019F00039092F5F3F4F068CF78DE02DA601B4010A
:101A0000DACF0284F385E02D0995D501ED91FC91A3
:101A10000488F589E02D83019401A601BE01C5016A
:101A20000995D501ED91FC910688F789E02DC50156
:101A3000DF91CF911F910F91FF90EF90DF90CF90AA
:101A4000BF90AF909F908F907F906F900994EF928E
:101A5000FF920F931F93DC011A960D911C911B9717
:101A600018962D913C911997ED91FC9100A0F1A150
:101A7000E02D7B0150E040E070E060E009951F91AF
:101A80000F91FF90EF9008954F925F926F927F9227
:101A90008F929F92AF92BF92CF92DF92EF92FF927E
:101AA0000F931F93CF93DF936C012B015A013901E0
:101AB0004801DC01ED91FC910284F385E02D09954C
:101AC000E201640C751CD601ED91FC91C615D70599
:101AD0005CF40088F189E02D87019401A501BE0125
:101AE000C60109952196EFCF0688F789E02DC6013A
:101AF000DF91CF911F910F91FF90EF90DF90CF90EA
:101B0000BF90AF909F908F907F906F905F904F901D
:101B100009948F929F92AF92BF92CF92DF92EF92F1
:101B2000FF920F931F93CF93DF93EC015B014A0168
:101B30006901E881F9810284F385E02D0995950119
:101B40002C0D3D1D21503109E881F9810488F5896A
:101B5000E02D78018401A401B501CE010995E88149
:101B6000F9810688F789E02DCE01DF91CF911F9191
:101B70000F91FF90EF90DF90CF90BF90AF909F902C
:101B80008F9009948F929F92AF92BF92CF92DF92E3
:101B9000EF92FF920F931F93CF93DF93EC015B01C2
:101BA0004A0169017801E881F9810284F385E02D19
:101BB0000995C80CD91C860101501109E881F981E9
:101BC0000488F589E02D9501A401B501CE010995A0
:101BD000E881F9810688F789E02DCE01DF91CF9168
:101BE0001F910F91FF90EF90DF90CF90BF90AF903B
:101BF0009F908F9009940895EF92FF920F931F93F7
:101C0000DC01ED91FC9100A0F1A1E02D09951F915F
:101C10000F91FF90EF9008950F931F93DC01ED91CA
:101C2000FC91068CF78DE02D09951F910F91089579
:101C30000F931F93DC01ED91FC91048CF58DE02D49
:101C400009951F910F910895DC01ED91FC9100849D
:101C5000F185E02D09942F923F924F925F926F92FF
:101C60007F928F929F92AF92BF92CF92DF92EF922C
:101C7000FF920F931F93CF93DF9300D000D000D03B
:101C8000CDB7DEB73C016A013E832D83FC82EB8237
:101C90005801A41AB50AB7FE03C0B194A194B108C3
:101CA0008D809E80861A970A97FE03C09194819436
:101CB00091088A149B045CF0902F812F0D811E8166
:101CC0009D838E839C2D8D2D6B01692F782F0C1594
:101CD0001D055CF09D818E817E836D83692F782F39
:101CE000902F812F8601C92ED82E1601201A310A75
:101CF0002B012D813E81421A530A57FE03C0519495
:101D000041945108710137FE03C03FEFE31AF30A13
:101D1000F594E7948D819E81861797075CF5A1E085
:101D2000B0E0BA83A983C016D1064CF1D301ED917E
:101D3000FC910484F585E02D2B813C81A8016D8107
:101D40007E818A149B041CF04D815E81B801C30121
:101D50000995E418F508F7FE0AC02D813E818981B6
:101D60009A81280F391F3E832D83E20CF31C0F5FED
:101D70001F4FD9CF2FEF3FEF3A832983D4CF269639
:101D80000FB6F894DEBF0FBECDBFDF91CF911F918C
:101D90000F91FF90EF90DF90CF90BF90AF909F900A
:101DA0008F907F906F905F904F903F902F9008950D
:101DB000089520911B06260F3327331F213231054A
:101DC000ECF420917D06FC0190E080E0243069F085
:101DD00082E00895A0911B062191AC0145505A4F15
:101DE000A40FB52FB11D2C930196861798F38091FF
:101DF0001B06680F60931B0680E0089581E008953C
:101E000010927D0681E080937C061092570661E077
:101E100082E10E94080461E083E10E940804E9EB8A
:101E2000F0E080818E7F808380818D7F808388E455
:101E30008093B80085E48093BC0008951092560604
:101E400010925506109284061092A6060E94000F6A
:101E500084EB93E0909354068093530685EB93E0D4
:101E600090935206809351060895CF93DF9391E0AB
:101E70009093FA058823B9F0C091B800D091BA00C8
:101E80008091BC008A7B8093BC0060E082E10E946C
:101E9000080460E083E10E9408040E94000FD093D0
:101EA000BA00C093B800DF91CF9108958F929F92AE
:101EB000AF92BF92CF92DF92EF92FF920F931F9358
:101EC000CF93DF93D091A606D13208F0D7C0182F58
:101ED000C091A5060E9472046B017C0180917D0671
:101EE00081116BC082E080937D0610937C068FEF9A
:101EF00080937B0610927A06D0937906A5E8B6E027
:101F0000E9E5F6E080E0D81391C010925806809180
:101F10005806CC0FC82BC0935806809157068130C5
:101F200009F088C0109257060E9472046B017C0170
:101F3000809158068093BB0080917F069091800627
:101F4000A0918106B0918206892B8A2B8B2BA1F060
:101F50000E94720400917F061091800620918106F4
:101F6000309182066C197D098E099F0906171707A3
:101F70002807390708F442C08091BC0083FDD8CF00
:101F800085EC8093BC000E9472046B017C018091FF
:101F90007D06823009F450C080917B068F3F09F4A2
:101FA0006FC080917B06803209F46CC080917B0603
:101FB000803309F469C084E026C080917F06909147
:101FC0008006A0918106B0918206892B8A2B8B2BEB
:101FD00009F484CF0E94720480907F06909080065E
:101FE000A0908106B09082066C197D098E099F0928
:101FF00086169706A806B90608F070CF80917E066F
:102000000E94350F85E0109284061092A606109269
:102010008306DF91CF911F910F91FF90EF90DF909A
:10202000CF90BF90AF909F908F9008959D91919386
:102030008F5F69CF85EEA5CF80917F069091800656
:10204000A0918106B0918206892B8A2B8B2B09F4F3
:102050009ECF0E94720400917F061091800620910D
:102060008106309182066C197D098E099F09061739
:1020700017072807390708F08ACFC0CF81E0C3CF00
:1020800080E0C1CF82E0BFCF83E0BDCFCF93DF93AD
:10209000EC018B818823A1F0888191E090938306E5
:1020A0008093A506109284061092A60681E00E94F5
:1020B000560F91E0811190E0892FDF91CF91089523
:1020C0000E941E0F81E08B83CE010E944610982F44
:1020D0008111E2CFF1CFE091560680915506E817C5
:1020E00030F4F0E0E652FA4F808190E008958FEFEF
:1020F0009FEF089590915606809155062FEF3FEF80
:10210000981748F4E92FF0E0E652FA4F208130E0CA
:102110009F5F90935606C90108958091550690914E
:102120005606891B990B0895CF92DF92EF92FF928A
:102130000F931F93CF93DF937C01CB018A012091F2
:102140008306222389F0EB016B01C40ED51ECC154A
:10215000DD0569F06991D701ED91FC910190F08165
:10216000E02DC7010995F3CF642F0E94D90EC80155
:10217000DF91CF911F910F91FF90EF90DF90CF9063
:102180000895CF93DF931F92CDB7DEB76983209177
:1021900083062223F9F02091A606203258F021E090
:1021A00030E0FC013383228390E080E00F90DF91E8
:1021B000CF91089580918406E82FF0E0EB57F94F16
:1021C000998190838F5F809384068093A60681E037
:1021D00090E0ECCF61E0CE0101960E94D90EF7CFDE
:1021E000CF93C82F8091D0068F3FB1F1E091DA06EE
:1021F000F091DB0680819091E006892B8083E0914D
:10220000DC06F091DD0690818091E10680958923BE
:102210008083E091DA06F091DB0690818091E00600
:102220008095892380838091D506882389F0CEBD4F
:1022300000000DB407FEFDCF8EB5E091DA06F091F7
:10224000DB0680819091E006892B8083CF910895F1
:102250008C2F0E948903F1CF8091CE0691E090935C
:1022600083068093A506109284061092A60660E06D
:1022700087EA96E00E94C1106C2F87EA96E00E94E0
:10228000C11081E0CF910C94560F8F929F92AF9224
:10229000BF92CF92DF92EF92FF920F931F93CF9353
:1022A000DF9380E00E94F01080E10E94F01080E453
:1022B0000E94F0108091D0068F3F09F46BC030EB84
:1022C000F32ED0E0C0E08F2D0E94F01082E00E943B
:1022D000F01080E10E94F01010E000E0CE01845F79
:1022E0009E4F6C01E091DA06F091DB0680819091BF
:1022F000E006892B8083E091DC06F091DD06808189
:102300009091E106892B8083E091DA06F091DB065B
:1023100090818091E0068095892380835601A00EEC
:10232000B11E20E1E22EF50181915F019091D50669
:10233000992369F18EBD00000DB407FEFDCF8EB567
:10234000EA94E110F0CFE091DA06F091DB068081AB
:102350009091E006892B8083005F1F4F00381105A4
:1023600009F0C0CFC058DF4FF394C115F4E0DF0788
:1023700009F0A9CFDF91CF911F910F91FF90EF90BE
:10238000DF90CF90BF90AF909F908F9008950E9464
:102390008903D6CF9090B8008CE08093B80090EB82
:1023A000F92ED0E0C0E0882483948F2D0E94F01095
:1023B00082E00E94F01080E10E94F01010E000E046
:1023C000CE01845F9E4F5C018091CE068092830691
:1023D0008093A506109284061092A60660E487EA10
:1023E00096E00E94C1106501C00ED11E80E1E82E6A
:1023F000F60161916F0187EA96E00E94C110EA94AC
:10240000E110F6CF81E00E94560F005F1F4F0038A9
:102410001105D1F6C058DF4FF394C115F4E0DF0782
:1024200021F69092B800A6CF90E080E008952F9218
:102430003F924F925F926F927F928F929F92AF9254
:10244000BF92CF92DF92EF92FF920F931F93CF93A1
:10245000DF9300D000D000D01F92CDB7DEB720911F
:10246000CC063091CD063F832E830091CA06109191
:10247000C706A12EB12C36E0139F40011124E09035
:10248000BB06F090BC066E817F816C5F7F4F7B83C3
:102490006A832E813F812A5F3F4F3D832C832E80AC
:1024A0003F8032E0230E311C6E807F8068E0660E34
:1024B000711C30E020E04FEF5FEFAFEFBFE7FC01B2
:1024C000D190CF01DD2009F482C06E817F81672B1E
:1024D00009F45CC07AE0D71205C0F301249130E022
:1024E00020E0EDCFFDE0DF1651F3EA81FB81C490DF
:1024F000EC81FD816491DC1410F36D1500F3F101A2
:1025000065917491DC18F7E0DF9E600D711D112458
:10251000FB01329654903196E491FB01349644903D
:102520003196D490D9823196E4910023B9F0C52C2C
:10253000D12C6981C60ED11C67FDDA94CA9CB0010A
:10254000CB9C700DDA9C700D1124620F731FE61680
:10255000F70624F4F301249130E020E0698161035F
:10256000F0011124E20FF31FEA17FB070CF4DF015F
:10257000519EE00DF11D112431974E175F070CF4A9
:10258000AF01419E200D311D112499CF7AE0D7165D
:1025900009F4A5CFEDE0DE1609F491CF002341F058
:1025A000B401620F731FE616F70614F430E020E062
:1025B000B401620F731FFB0131974E175F070CF4D4
:1025C000AF012A173B070CF4D9019B0178CF90E0AB
:1025D00080E04A175B0724F0CA018A1B9B0B019617
:1025E00027960FB6F894DEBF0FBECDBFDF91CF9117
:1025F0001F910F91FF90EF90DF90CF90BF90AF9021
:102600009F908F907F906F905F904F903F902F9012
:1026100008958823B9F0809140068F5F833080F45D
:102620008093400680914006813021F480930A0116
:1026300080930B0181E08093090180930801089544
:1026400081E0EECF10924006EDCFFC01019000201A
:10265000E9F73197AF01481B590BBC0183EB96E0BA
:102660000C94B805FF920F931F93CF93DF938C01C7
:10267000F62EFC0180819181009711F00E94E421E7
:1026800086E090E00E944821EC01F88287EA96E01B
:102690009A8389831B8280E290E09D838C83F8017A
:1026A000D183C0830E941E0F81E08B83CE01DF9116
:1026B000CF911F910F91FF900C944610CF93DF9311
:1026C00000D01F92CDB7DEB777FD51C06F3F7105C7
:1026D00019F014F06FEF70E020E1629FB001112457
:1026E000603FAFE07A0711F46FEF7FE01092B9001E
:1026F0002CE02093B80020E429839B0144E0369528
:1027000027954A95E1F72A836295607F6B83FC01E8
:10271000248135812330310520F18181928120810E
:1027200031E0309383062093A50610928406109220
:10273000A606DC01ED91FC910280F381E02D43E0DF
:1027400050E0BE016F5F7F4F0995039751F481E020
:102750000E94560F811105C01092B90088E4809341
:10276000B8000F900F900F90DF91CF91089560E027
:10277000B3CFCF93DF93EB01BC018091E40690913E
:10278000E5060E945E13BE018091E2069091E30689
:10279000DF91CF910C945E130E946D2285ED8093A2
:1027A000BC0080917F0690918006A0918106B09137
:1027B00082060796A11DB11D23E0B695A7959795B2
:1027C00087952A95D1F72091BC0024FD03C0109273
:1027D0007D06089540917F065091800660918106A4
:1027E00070918206452B462B472B69F30097A10574
:1027F000B10541F02AE22A95F1F700C00197A1093D
:10280000B109E1CF80917E060C94350FFF920F93B2
:102810001F93CF93DF93EC018B01FB01F0800E94AB
:10282000BD1EF81621F06F2DCE010E94C51EF801C5
:10283000F1802196CE010E94BD1EF81621F06F2D69
:10284000CE010E94C51EC801DF91CF911F910F914B
:10285000FF9008950F931F93CF93DF938C01EB01AB
:102860000E94BD1E8883C80101960E94BD1E8983F7
:10287000CE01DF91CF911F910F9108951F920F927A
:102880000FB60F9211242F933F938F939F93AF9383
:10289000BF938091490690914A06A0914B06B09152
:1028A0004C063091480623E0230F2D3758F501964A
:1028B000A11DB11D209348068093490690934A06B6
:1028C000A0934B06B0934C0680914D0690914E0616
:1028D000A0914F06B09150060196A11DB11D8093A5
:1028E0004D0690934E06A0934F06B0935006BF91AD
:1028F000AF919F918F913F912F910F900FBE0F90AD
:102900001F90189526E8230F0296A11DB11DD2CF66
:102910001F920F920FB60F9211242F933F934F9354
:102920005F936F937F938F939F93AF93BF93EF9337
:10293000FF93E0910201F09103010995FF91EF915E
:10294000BF91AF919F918F917F916F915F914F91C7
:102950003F912F910F900FBE0F901F9018951F92CF
:102960000F920FB60F9211242F933F934F935F93C3
:102970006F937F938F939F93AF93BF93EF93FF9347
:10298000E0910001F09101010995FF91EF91BF9154
:10299000AF919F918F917F916F915F914F913F91F7
:1029A0002F910F900FBE0F901F9018951F920F92AE
:1029B0000FB60F9211242F933F934F935F936F9312
:1029C0007F938F939F93AF93BF93EF93FF938091E8
:1029D000B900887F803609F44AC0F0F5883209F4DE
:1029E000A7C018F5803109F49BC0B8F4882309F416
:1029F000F9C0883009F494C0FF91EF91BF91AF9175
:102A00009F918F917F916F915F914F913F912F9106
:102A10000F900FBE0F901F901895883109F488C051
:102A2000803251F780937B0614C0803409F49DC036
:102A300040F48033B9F38833F9F680937B0685EC54
:102A4000B0C0803509F485C0883509F496C0883453
:102A500099F60E94CE13D0CF883909F48CC038F58E
:102A6000883729F050F4883611F0803729F683E052
:102A700080937D0610923D0657C0883809F47BC0CC
:102A8000803919F0803809F0B7CF80913D06803247
:102A900008F071C0E0913D0681E08E0F80933D0605
:102AA0008091BB00F0E0E35EF94F80833DC0803B46
:102AB00039F0E0F4803A09F479C0883A09F09CCF03
:102AC00084E080937D0610921C0610921B06E09114
:102AD0005306F0915406099580911B0681110FC091
:102AE00081E080931B061092FB0509C0803C09F42D
:102AF000A6CF883C09F4A3CF883B09F07DCFE091B5
:102B00001C0681E08E0F80931C06F0E0E550FA4F22
:102B100080818093BB0090911C0680911B0629C088
:102B2000809158068093BB0085EC8093BC0064CFF5
:102B300090917A0680917906981758F5E0917A0677
:102B400081E08E0F80937A06F0E0E75AF94F80819A
:102B5000E9CFE0917A0681E08E0F80937A0680912A
:102B6000BB00F0E0E75AF94F808390917A0680919C
:102B700079069817C8F285E8D8CFE0917A0681E007
:102B80008E0F80937A068091BB00F0E0E75AF94FF0
:102B9000808380917C0681115CCF81E08093570611
:102BA00084EA8093BC0010927D0626CF85EC80934A
:102BB000BC0010927D0680913D06803230F4E09199
:102BC0003D06F0E0E35EF94F108260913D0670E053
:102BD000E0915106F09152068DE196E00995109230
:102BE0003D060ACF10927B0634CFE7EAF6E0138267
:102BF000128288EE93E0A0E0B0E084839583A68300
:102C0000B78386E295E0918380831092E506109267
:102C1000E4061092E3061092E206E3EBF6E013827C
:102C2000128220E830E03583248380E490E09783AB
:102C300086833187208793878287168A1586148634
:102C40001786168681E0858B848B2FEF3FEF338BC1
:102C5000228B318B208B878B108E128E118E88E306
:102C600095E0918380838FEF858F81A3878F868FF7
:102C700080A30895CF93DF93CDB7DEB7C855D109B0
:102C80000FB6F894DEBF0FBECDBF789484B58260D6
:102C900084BD84B5816084BD85B5826085BD85B500
:102CA000816085BD80916E00816080936E0010927E
:102CB00081008091810082608093810080918100F9
:102CC000816080938100809180008160809380008A
:102CD0008091B10084608093B1008091B0008160E8
:102CE0008093B00080917A00846080937A00809114
:102CF0007A00826080937A0080917A00816080936C
:102D00007A0080917A00806880937A001092C100E6
:102D100064E071E090E080E00E942A1466E071E0D7
:102D200082E090E00E942A1460E684EE96E00E9421
:102D3000321361E682EE96E00E94321362E084E094
:102D40000E94360484E00E94DF0321E0892B09F011
:102D500020E02093450662E085E00E94360485E08D
:102D60000E94DF0321E0892B09F420E0209347062D
:102D700060E082E00E94360460E083E00E94360456
:102D800085ED94E0909301018093000180916900AA
:102D90008C7F826080936900E89A70E060E090E048
:102DA00080E00E94B91382E08093CF068CE3809389
:102DB000CE068091D0068F3F09F496C161E08091E4
:102DC000D2060E94360461E08091D4060E94360447
:102DD0008091D406082E000C990BFC01E058F94FA5
:102DE000E491F0E0EE0FFF1FE459F94F2591349183
:102DF0003093DB062093DA06FC01EC56F94FE491A0
:102E0000E093E0068091D206082E000C990BFC019D
:102E1000E058F94FE491F0E0EE0FFF1FE459F94F4D
:102E2000259134913093DD062093DC06FC01EC56AD
:102E3000F94FE491E093E1068091D50681113EC0FF
:102E400061E08091D0060E94360461E08091D10655
:102E50000E9436048091D106082E000C990BFC01CB
:102E6000E058F94FE491F0E0EE0FFF1FE459F94FFD
:102E7000259134913093D9062093D806FC01EC5665
:102E8000F94FE491E093DF068091D006082E000C04
:102E9000990BFC01E058F94FE491F0E0EE0FFF1FB1
:102EA000E459F94F259134913093D7062093D606F3
:102EB000FC01EC56F94FE491E093DE068091D506D3
:102EC000882309F439C01FB7F89480913E06811118
:102ED00027C0EAE8F6E08491EEE9F6E09491E82F65
:102EE000F0E0EE0FFF1FEE59F94FA591B491EC9170
:102EF000E92321F461E08AE00E94080461E08AE0AD
:102F00000E9436048CB580618CBD8CB580648CBD0C
:102F100061E08DE00E94360461E08BE00E9436049F
:102F200080913E068F5F80933E061FBF8CB58C7FDD
:102F30008CBD8DB581608DBD61E08091D3060E940E
:102F4000360461E08091D3060E94080461E070E0DD
:102F500080E090E00E94970460E08091D3060E9498
:102F600008046AE070E080E090E00E94970461E06D
:102F70008091D3060E9408048EEA0E94F01085ED2D
:102F80000E94F01080E80E94F01088EA0E94F01081
:102F90008FE30E94F01083ED0E94F01080E00E9409
:102FA000F01080E40E94F0108DE80E94F01084E19F
:102FB0000E94F01080E20E94F01080E00E94F01069
:102FC00081EA0E94F01088EC0E94F0108AED0E94C5
:102FD000F01082E10E94F01081E80E94F0108FEC66
:102FE0000E94F01089ED0E94F01081EF0E94F01015
:102FF0008BED0E94F01080E40E94F01084EA0E94A1
:10300000F01086EA0E94F0108FEA0E94F0100CE0A7
:1030100011E0E12C54E0F52EF801970111922150B6
:103020003040E1F70E94451181E08093C70680930C
:10303000C80681E090E09093C4068093C306109286
:10304000C6061092C5061092C0061092BF061092D6
:10305000C2061092C10680E695E00E9425130E94E8
:10306000451168EE73E080E090E00E949704F8015B
:103070009701119221503040E1F70E944511CE0195
:1030800001961C014E019DE2890E911CFE0177966E
:103090002596FFAFEEAF2597BB24B39484E00E9442
:1030A000DF037C0101E0892B09F400E085E00E9448
:1030B000DF03892BE1F4809147068823C1F070E09B
:1030C00060E090E080E00E94B9131092460680E034
:1030D0000E94091382E080930B01B0920A01B09222
:1030E0000901B092080115C00E941E0F25CF8091E2
:1030F00045068111A1C1EF2861F0B09246060E94F9
:10310000C9046093410670934206809343069093EE
:1031100044060093450680910901882381F11092AD
:10312000090180914006813009F401C208F4E2C12E
:10313000823009F4F9C1F12CE12C08E010E020E81C
:1031400030E050E040E070E060E083EB96E00E9409
:10315000440DC1010E94171220E830E0281B390BF2
:10316000369527953093C0062093BF061092C2066D
:103170001092C106C1010E9425130E944511809141
:103180000801882309F484C310920801F12CE12C72
:1031900000E410E020E830E049E050E070E060E05A
:1031A00083EB96E00E94440DB092C706B092C80629
:1031B00063E083EB96E00E94440961EB75E0C40193
:1031C0000E948D22C4010E9417129801281B390BFE
:1031D000C901969587959093C0068093BF0610927B
:1031E000C2061092C106C4010E94251361E083EB60
:1031F00096E00E94440966EB75E0C4010E948D22AE
:10320000C4010E941712081B190B169507951093FD
:10321000C0060093BF061092C2061092C106C401F8
:103220000E94251360E083EB96E00E944409D09051
:103230004006D110A4C180910B01813009F49FC1D7
:10324000823009F477C188E090E09093C0068093C3
:10325000BF0687E390E09093C2068093C1068AEB95
:1032600095E00E94251380910B01823009F471C111
:1032700088E490E09093C0068093BF06E7E3F0E017
:10328000F093C206E093C1068AEB95E00E942513F5
:103290002B961FAE1EAE2B9744244A94DD24DA945D
:1032A00030E2439EC00111240FEF10E0B8010E94EC
:1032B0000A1F072E000C880B990B0E944F2020E05C
:1032C00030E040E451E40E94391F29966CAF7DAF95
:1032D0008EAF9FAF299740E2D49EC0011124B80160
:1032E0000E940A1F072E000C880B990B0E944F208A
:1032F00020E030E040E451E40E94391F2F966CAF8B
:103300007DAF8EAF9FAF2F97712C612CB301072C2F
:10331000000C880B990B0E944F206B017C01862DBD
:10332000817064968FAF649765961FAE6597A7010D
:10333000960129966CAD7DAD8EAD9FAD29970E940B
:10334000391F0E94172063966CAF7DAF8EAF9FAF81
:10335000639765964EAC5FAC659797E6490E511C36
:103360002F962CAD3DAD4EAD5FAD2F97C701B60189
:103370000E94391F0E941720E9E1F0E065962EAD0A
:103380003FAD6597E21BF30BEE24E394F12C6196BD
:103390000EAD1FAD61979201AB01BF0183EB96E0CB
:1033A0000E94AF0C3FEF631A730A43E06416710486
:1033B00009F0ACCFB092C706B092C8062B968EAD7E
:1033C0009FAD2B97009709F44BC2BC01990F880B56
:1033D000990B0E944F2020E030E048EC52E40E941C
:1033E000DB2020E030E04FE753E40E94A51F84017A
:1033F00021E045E00E94681C8DA5882309F4D8C10E
:10340000F40101900020E9F731977F01E818F908ED
:1034100064018601F60181916F01882309F4BEC120
:10342000082E000C990B0E947222892B09F4B6C158
:10343000F1E0EF1AF108EDCFEF2801F1C09041065D
:10344000D0904206E0904306F0904406C114D104A7
:10345000E104F10409F45DCE0E94C9046C197D09F0
:103460008E099F09613D77408105910508F451CE91
:103470001092460680E00E94091341CE1092410648
:10348000109242061092430610924406809146061E
:10349000882309F43ECE80914006811127C0109107
:1034A0000A01113069F480910B018130F9F0109319
:1034B0003F0610930B01109309011093080129CEC8
:1034C000111109C06FEF70E08FEF90E00E94B91307
:1034D00010920B0102CE123049F470E060E090E0EF
:1034E00080E00E94B91310930B01F7CD81E00E9498
:1034F00009130FCE80910A01813069F030F08230DB
:1035000009F019CE64E875E002C066E675E0C10115
:103510000E948D2210CE80910B0166E775E081300C
:10352000B1F362E775E0F3CF60E975E0F0CF61EAEF
:1035300075E0EDCFEBE0F0E0F093C006E093BF065E
:1035400027E330E03093C2062093C10683EC95E078
:1035500088CE2BE430E03093C0062093BF0687E38B
:1035600090E09093C2068093C10683EC95E00E94A0
:103570002513412C2B961FAE1EAE2B9791CE80911A
:10358000040190910501D12C97FD07C08F3F910553
:1035900019F014F08FEF90E0D82E809106019091F1
:1035A0000701412C97FD07C08F3F910519F014F0DA
:1035B0008FEF90E0482E6D2D70E0E42CF12CFB0194
:1035C000EE19FF092B96FFAFEEAF2B97072E000CDD
:1035D000880B990B0E944F2020E030E048EC52E429
:1035E0000E94DB2020E030E04FE753E40E94A51F5B
:1035F000810121E045E00E94681C3F922F922BEC54
:1036000035E03F932F939F928F920E949422B701AF
:10361000FF0C880B990B0E944F2020E030E048EC13
:1036200052E40E94DB2020E030E04FE753E40E94A8
:10363000A51F21E045E00E94681C3F922F928BEC71
:1036400095E09F938F932596FFAD2597FF93249642
:103650002FAD24972F930E94942269969FAE8EAE31
:103660006997CE01479667969FAF8EAF67970FB663
:10367000F894DEBF0FBECDBF2C961FAE2C972696BA
:103680001FAE26972696FFAD2697F33021F0B2E0C5
:103690005B2EF53011F4552453946996EEADFFADD1
:1036A000699721916996FFAFEEAF6997352D49EF84
:1036B0004303300111248FE3680E711C2C96FFAD7B
:1036C0002C97EF2FF0E06196FFAFEEAF6197A52C3E
:1036D000C52CF12CE12C01E010E0A301BF0183EB2C
:1036E00096E00E9459096796EEADFFAD679721916C
:1036F0006796FFAFEEAF679761966EAD7FAD61974E
:10370000685B7F4FA30183EB96E00E945909852DEA
:10371000880F880F580E53942C96FFAD2C97F50DFB
:103720002C96FFAF2C9726962FAD26972F5F2696C7
:103730002FAF2697263009F0A5CF80914006813023
:10374000D1F0823009F0ACCDAA24A394CC24C39448
:1037500028E140E350E062E370E083EB96E00E94F2
:10376000590929E140E350E06AE770E083EB96E015
:103770000E94590995CDAA24A394CC24C394F12C7A
:10378000E12C01E010E028E140E350E062E370E06A
:1037900083EB96E00E94590928E1E4CF081519054A
:1037A00039F0A7014F5F5F4FB801C4010E947B222F
:1037B0009F928F9221ED35E03F932F939F928F92AE
:1037C0000E949422C4010E941712AC0120910601AC
:1037D000309107010F900F900F900F900F900F9066
:1037E00037FD74C02F3F310519F014F02FEF30E092
:1037F00080E890E0841B950B969587959093C00682
:103800008093BF062B968EAD9FAD2B9797FD0196AB
:1038100095958795820F911D45E0880F991F4A95D0
:10382000E1F76FEF70E00E940A1F072E000C880B73
:10383000990B0E944F2020E030E040E451E40E94C8
:10384000391F20E030E040E050E40E94381F0E9421
:1038500017207093C2066093C106C4010E9425130D
:1038600081E090E09093C4068093C3061092C60650
:103870001092C5060E94451164E071E090E080E07E
:103880000E94061466E071E082E090E00E94061457
:1038900080913F06882361F010923F0660910601F7
:1038A0007091070180910401909105010E94B91364
:1038B0006AE070E080E090E00E94970480E090E091
:1038C000892B09F4EBCB0E940000E6CB20E090CFDF
:1038D000EF920F931F93CF93DF93E80134E047FDFE
:1038E00034E1042E000C550B57FF03C05195419550
:1038F0005109E32E022F242FAE010E94861CCE0117
:10390000DF91CF911F910F91EF900895A9E0B0E062
:10391000ECE8FCE10C94D91E6A01F22EB02E102FB7
:10392000FBE3AF2EA01608F41BE31F5F012F27E077
:10393000AE014F5F5F4F0E94E51DBC018981982F4A
:103940009970913009F43FC09BE2E1FC04C09E2DC8
:103950009170E0FC3AC05E2D5071E82FE87083FF53
:1039600046C084E0911101C083E0EF2DE81B8F1564
:1039700008F0E0E0D6018E2F20E2552351F1992383
:1039800029F0D6019C93C60101966C0196012D5F2A
:103990003F4FE2FE24C08EE4D6018C9391E4119651
:1039A0009C93119712968C93D9018E2F90E28111DE
:1039B0001BC0E20FF32FF11D10828EEF9FEF2996AF
:1039C000ECE00C94F51E9DE2C6CF90E2C4CF2D939F
:1039D00081508111FCCFCE0ED11CE0E0D0CF8EE61D
:1039E000D6018C9391E6DBCF9D938150E0CF482F99
:1039F000447082FF3DC084E0911101C083E08F15C7
:103A000010F4EF2DE81BD6018E2F20E2552309F18B
:103A1000992329F0D6019C93C60101966C01960169
:103A20002D5F3F4FE2FE1BC089E4D6018C938EE4EC
:103A300011968C93119786E412968C93D9018E2F50
:103A400090E2882309F4B5CF9D938150FACF2D934E
:103A500081508111FCCFCE0ED11CE0E0D9CF89E698
:103A6000D6018C938EE611968C93119786E6E4CF5F
:103A70009B0177FF02C030E020E0A1E0B0E09111AF
:103A800002C0B0E0A0E0F9013196AE0FBF1F8B2C51
:103A9000912CBB2009F461C05401EFEFAE1ABE0AAD
:103AA000AA0DBB1DFA161B0619F014F04F2D4A1B68
:103AB000511188C0E3FC59C07601A42FB0E2A111D6
:103AC0004FC0C40ED11C992309F45BC040E0D6015D
:103AD0001196F60190836D01552309F448C0012F1A
:103AE000060F9A81582F507184FF03C0913309F457
:103AF000015010160CF047C0093008F008E0EEE263
:103B0000FE2E5B01A01AB108850191948194910861
:103B10002F3F320729F4D601FC92F60131966F014E
:103B20006217730794F1021713077CF5DB01A21BE0
:103B3000B30BAA24A394B12CAC0EBD1EAA0DBB1DC1
:103B400011968C9121503109D6011196281539050D
:103B5000F4F0F60180836D01DBCFB12CA12CA0CF56
:103B6000F701B1937F01A150AACF9111B0CFD60137
:103B7000942F50E302C05D9391509111FCCFC40E7D
:103B8000D11C40E0ACCF01E0BACF80E3DBCF6217BD
:103B9000730731F4963388F4953311F4552369F0A3
:103BA000F6018083FD01842F90E2811108C0A40FEB
:103BB000B11D1C9290E080E002CF81E3F1CF9193A0
:103BC0008150F3CF911183CF8ACF283008F027E0BE
:103BD0003327DA01990F311D87FD91600096610549
:103BE000710539F432602E5F3D9330E32A95E1F799
:103BF00008959F3F30F080387105610509F03C5F02
:103C00003C5F3D93913008F08068911DDF93CF9326
:103C10001F930F93FF92EF92192F987F9695E92F9C
:103C200096959695E90FFF27EE53FF4F9927332777
:103C3000EE24FF24A701E70105900894079428F4D7
:103C4000360FE71EF81E491F511D660F771F881F8C
:103C5000991F0694A1F70590079428F4E70EF81E23
:103C6000491F561FC11D770F881F991F661F069495
:103C7000A1F70590079428F4F80E491F561FC71F97
:103C8000D11D880F991F661F771F0694A1F7059015
:103C9000079420F4490F561FC71FD81F990F661F9E
:103CA000771F881F0694A9F784911095177041F02B
:103CB000D695C79557954795F794E7941A95C1F708
:103CC000E8E6F0E06894159015913591659195912D
:103CD00005907FE27395E118F10A430B560BC90B6F
:103CE000D009C0F7E10CF11E431F561FC91FD01D9C
:103CF0007EF4703311F48A95E6CFE894015030F0E9
:103D0000080F0AF40027021708F4202F2395022F2A
:103D10007A3328F079E37D932A95E9F710C07D93F3
:103D20002A9589F606949795679537951795179470
:103D3000E118F10A430B560BC90BD00998F02395F3
:103D40007E9173957A3308F070E37C932013B8F773
:103D50007E9170617D9330F0839571E37D9370E384
:103D60002A95E1F71124EF90FF900F911F91CF91C9
:103D7000DF91992787FD90950895F999FECF92BD1F
:103D800081BDF89A992780B50895262FF999FECF1D
:103D90001FBA92BD81BD20BD0FB6F894FA9AF99A68
:103DA0000FBE019608952F923F924F925F926F92AD
:103DB0007F928F929F92AF92BF92CF92DF92EF92BB
:103DC000FF920F931F93CF93DF93CDB7DEB7CA1B3C
:103DD000DB0B0FB6F894DEBF0FBECDBF09942A8867
:103DE000398848885F846E847D848C849B84AA840F
:103DF000B984C884DF80EE80FD800C811B81AA819C
:103E0000B981CE0FD11D0FB6F894DEBF0FBECDBF66
:103E1000ED01089597FB072E16F4009407D077FD67
:103E200009D00E941E1F07FC05D03EF49095819595
:103E30009F4F0895709561957F4F0895AA1BBB1BF6
:103E400051E107C0AA1FBB1FA617B70710F0A61B9A
:103E5000B70B881F991F5A95A9F780959095BC01BB
:103E6000CD010895EE0FFF1F0590F491E02D099408
:103E70005058BB27AA270E94501F0C94A1200E94D3
:103E8000932038F00E949A2020F039F49F3F19F4D3
:103E900026F40C9490200EF4E095E7FB0C948A2015
:103EA000E92F0E94B22058F3BA17620773078407FC
:103EB000950720F079F4A6F50C94D4200EF4E09543
:103EC0000B2EBA2FA02D0B01B90190010C01CA01D4
:103ED000A0011124FF27591B99F0593F50F4503E7F
:103EE00068F11A16F040A22F232F342F4427585F71
:103EF000F3CF469537952795A795F0405395C9F789
:103F00007EF41F16BA0B620B730B840BBAF0915040
:103F1000A1F0FF0FBB1F661F771F881FC2F70EC0DF
:103F2000BA0F621F731F841F48F4879577956795B2
:103F3000B795F7959E3F08F0B0CF9395880F08F09E
:103F40009927EE0F9795879508950E94B91F0C94B5
:103F5000A1200E949A2058F00E94932040F029F45A
:103F60005F3F29F00C948A2051110C94D5200C94B9
:103F700090200E94B22068F39923B1F3552391F366
:103F8000951B550BBB27AA2762177307840738F0C8
:103F90009F5F5F4F220F331F441FAA1FA9F335D025
:103FA0000E2E3AF0E0E832D091505040E695001CD9
:103FB000CAF72BD0FE2F29D0660F771F881FBB1F93
:103FC000261737074807AB07B0E809F0BB0B802D71
:103FD000BF01FF2793585F4F3AF09E3F510578F09D
:103FE0000C948A200C94D5205F3FE4F3983ED4F3E0
:103FF000869577956795B795F7959F5FC9F7880F71
:10400000911D9695879597F90895E1E0660F771FC2
:10401000881FBB1F621773078407BA0720F0621B53
:10402000730B840BBA0BEE1F88F7E09508950E947E
:104030001E206894B1110C94D52008950E94BA20D6
:1040400088F09F5798F0B92F9927B751B0F0E1F059
:10405000660F771F881F991F1AF0BA95C9F714C009
:10406000B13091F00E94D420B1E008950C94D42096
:10407000672F782F8827B85F39F0B93FCCF3869542
:1040800077956795B395D9F73EF49095809570959F
:1040900061957F4F8F4F9F4F0895E89409C097FB1C
:1040A0003EF490958095709561957F4F8F4F9F4F0F
:1040B0009923A9F0F92F96E9BB279395F695879553
:1040C00077956795B795F111F8CFFAF4BB0F11F416
:1040D00060FF1BC06F5F7F4F8F4F9F4F16C08823BD
:1040E00011F096E911C0772321F09EE8872F762FF3
:1040F00005C0662371F096E8862F70E060E02AF034
:104100009A95660F771F881FDAF7880F969587951F
:1041100097F9089597F99F6780E870E060E0089547
:104120009FEF80EC089500240A94161617061806CF
:104130000906089500240A941216130614060506AB
:104140000895092E0394000C11F4882352F0BB0F3C
:1041500040F4BF2B11F460FF04C06F5F7F4F8F4F9F
:104160009F4F089557FD9058440F551F59F05F3FDA
:1041700071F04795880F97FB991F61F09F3F79F089
:1041800087950895121613061406551FF2CF46950B
:10419000F1DF08C0161617061806991FF1CF86958D
:1041A0007105610508940895E894BB276627772771
:1041B000CB0197F908950E94EE200C94A1200E9453
:1041C000932038F00E949A2020F0952311F00C944F
:1041D0008A200C94902011240C94D5200E94B220A7
:1041E00070F3959FC1F3950F50E0551F629FF0014A
:1041F000729FBB27F00DB11D639FAA27F00DB11D63
:10420000AA1F649F6627B00DA11D661F829F2227EB
:10421000B00DA11D621F739FB00DA11D621F839F72
:10422000A00D611D221F749F3327A00D611D231F48
:10423000849F600D211D822F762F6A2F11249F5796
:1042400050409AF0F1F088234AF0EE0FFF1FBB1F99
:10425000661F771F881F91505040A9F79E3F510558
:1042600080F00C948A200C94D5205F3FE4F3983EB4
:10427000D4F3869577956795B795F795E7959F5F02
:10428000C1F7FE2B880F911D9695879597F9089594
:104290000F931F93CF93DF938230910510F482E048
:1042A00090E0E091E806F091E90630E020E0B0E02F
:1042B000A0E0309799F42115310509F44AC0281B74
:1042C000390B24303105D8F58A819B816115710540
:1042D00089F1FB0193838283FE0111C040815181EA
:1042E0000281138148175907E0F04817590799F4DC
:1042F000109761F012960C93129713961C933296B6
:10430000CF01DF91CF911F910F9108950093E8069F
:104310001093E906F4CF2115310551F042175307E8
:1043200038F0A901DB019A01BD01DF01F801C1CF1D
:10433000EF01F9CF9093E9068093E806CDCFFE0117
:10434000E20FF31F8193919322503109398328831F
:10435000D7CF2091E6063091E706232B41F4209138
:104360000E0530910F053093E7062093E606209165
:104370000C0530910D052115310541F42DB73EB7DF
:104380004091100550911105241B350BE091E60674
:10439000F091E706E217F307A0F42E1B3F0B281756
:1043A000390778F0AC014E5F5F4F2417350748F0AE
:1043B0004E0F5F1F5093E7064093E606819391935B
:1043C0009FCFF0E0E0E09CCFCF93DF930097E9F040
:1043D000FC01329713821282A091E806B091E9069F
:1043E000ED0130E020E01097A1F420813181820FAF
:1043F000931F2091E6063091E7062817390709F048
:1044000061C0F093E706E093E606DF91CF9108954F
:10441000EA01CE17DF07E8F54A815B819E0141156D
:104420005105B1F7E901FB83EA8349915991C40F22
:10443000D51FEC17FD0761F4808191810296840FEE
:10444000951FE90199838883828193819B838A8365
:10445000F0E0E0E012968D919C9113970097B9F5EA
:104460002D913C911197CD010296820F931F2091BF
:10447000E6063091E7062817390739F6309751F5E7
:104480001092E9061092E806B093E706A093E606BC
:10449000BCCFD383C28340815181840F951FC8173D
:1044A000D90761F44E5F5F4F88819981480F591F8A
:1044B000518340838A819B819383828321153105B7
:1044C00009F0B0CFF093E906E093E8069ECFFD0136
:1044D000DC01C0CF13821282D7CF81E090E0F89444
:1044E0000C94412591110C949124803219F089503B
:1044F0008550C8F708956817790768F4FB01DC0157
:10450000E40FF51FA40FB51F02C002900E92415098
:104510005040D8F708950C949F24FB01DC010190D2
:104520000D920020E1F70895AEE0B0E0EAE9F2E292
:104530000C94E11E0D891E8986E08C831A83098301
:104540008FEF9FE79E838D83AE01475E5F4F6F893C
:10455000788DCE0101960E94B7222F813885020FF7
:10456000131FF80110822E96E4E00C94FD1EABE0C0
:10457000B0E0EDEBF2E20C94D31E7C013B018A012A
:10458000FC0117821682838181FFC8C1CE0101968A
:104590005C01F7019381F30193FD859193FF819174
:1045A0003F01882309F453C1853239F493FD859185
:1045B00093FF81913F01853229F4B70190E00E9479
:1045C000B324E7CF912C212C312CFFE1F31538F0E7
:1045D0008B3211F190F4803209F1833229F137FCEA
:1045E0003CC020ED280F2A3050F536FE20C08AE06E
:1045F000989E200D1124922E06C08D3291F08033AA
:1046000071F7689430F8F30193FD859193FF8191E0
:104610003F018111DACF21C0689431F8689432F8F3
:10462000F2CF689433F8EFCF689434F8ECCFEAE037
:104630002E9E200D1124222E689435F8E4CF8E3260
:1046400029F436FC04C1689436F8DDCF8C3619F4B1
:10465000689437F8D8CF8836B1F2982F9F7D95545B
:104660009330E0F08336A1F18337C1F1833509F04F
:1046700063C02801F2E04F0E511CF801C080D180C8
:10468000692D70E036FC02C06FEF7FEFC6010E941B
:1046900094244C01689437F882010AC00C5F1F4FC4
:1046A000FFE3F98388248394912C6501E89437F81B
:1046B00033FE2DC0522C8114910471F5552009F45C
:1046C00068CFB70180E290E00E94B3245A94F6CFFD
:1046D000F801808189830E5F1F4FE4CF2801F2E04B
:1046E0004F0E511CF801C080D180692D70E036FC5E
:1046F00002C06FEF7FEFC6010E94A8244C01820127
:10470000D5CFB70180E290E00E94B3242A94281408
:10471000190409F0B0F7CECFF60137FC859137FECA
:1047200081916F01B70190E00E94B32451105A9417
:10473000F1E08F1A9108BFCF843619F0893609F05D
:1047400077C0F80137FE6BC06081718182819381EF
:104750000C5F1F4FF32DFF763F2E97FF09C09095FA
:104760008095709561957F4F8F4F9F4F689437F874
:104770002AE030E0A5010E94E324C82ECA188C2C40
:10478000432C36FE0CC0E89440F8C91440F434FEC3
:1047900005C032FC03C0F32DFE7E4F2E892C44FE53
:1047A00095C0FE01EC0DF11D8081803309F087C0BA
:1047B000242D297E422E842D8870582E43FC95C0CE
:1047C00040FE8FC09C2C821418F42C0C922C98184C
:1047D00044FE91C0B70180E390E00E94B32442FE02
:1047E00009C088E790E041FE02C088E590E0B7018B
:1047F0000E94B324C91408F48AC0CA94D12C9FEF34
:10480000C91AD90ACA0CDB1CF60182916F01B701E3
:1048100090E00E94B324AC14BD04B1F74FCF608187
:104820007181072E000C880B990B0E5F1F4F92CFE2
:10483000D32CE894D4F82AE030E0853739F1232DE1
:10484000297FD22E8F3601F148F48835A9F0F7017F
:10485000868197812B96E2E10C94EF1E803749F018
:104860008837A9F7D4FE02C06894D2F820E130E07E
:104870000DC06894D4F8F6CF34FE03C0822F866052
:10488000D82E20E132E002C028E030E0F801D7FE67
:104890000FC060817181828193810C5F1F4FA501E0
:1048A0000E94E324C82ECA183D2CE89437F867CF3D
:1048B0006081718190E080E00E5F1F4FF0CF42FC7D
:1048C00002C0839478CF8394839475CF842D8678A7
:1048D00009F471CFF6CFB70180E290E00E94B324D3
:1048E00083948214C0F3512C73CF522C5818821425
:1048F00008F46ECFF8CF842D867809F47BCF8BE255
:1049000041FE80E247FC8DE2B70190E071CFB70134
:1049100080E390E00E94B3249A946CCF8FEF9FEFD6
:1049200099CF992788270895FC0105906150704020
:104930000110D8F7809590958E0F9F1F0895FB0169
:10494000DC0102C001900D9241505040D8F708950B
:10495000FC016150704001900110D8F7809590954E
:104960008E0F9F1F08950F931F93CF93DF93182FE0
:10497000092FEB018B8181FD09C01FEF0FEF812F04
:10498000902FDF91CF911F910F91089582FF14C056
:104990002E813F818C819D81281739073CF4E88165
:1049A000F981CF0101969983888310838E819F813D
:1049B00001969F838E83E3CFE885F985812F099542
:1049C000892BA1F3DACFFA01AA27283051F120313F
:1049D00081F1E8946F936E7F6E5F7F4F8F4F9F4F93
:1049E000AF4FB1E03ED0B4E03CD0670F781F891FD5
:1049F0009A1FA11D680F791F8A1F911DA11D6A0FA3
:104A0000711D811D911DA11D20D009F468943F9155
:104A10002AE0269F11243019305D3193DEF6CF0154
:104A20000895462F4770405D4193B3E00FD0C9F71A
:104A3000F6CF462F4F70405D4A3318F0495D31FD87
:104A40004052419302D0A9F7EACFB4E0A6959795DA
:104A5000879577956795BA95C9F7009761057105B0
:104A600008959B01AC010A2E0694579547953795FA
:104A70002795BA95C9F7620F731F841F951FA01D54
:064A80000895F894FFCF39
:104A8600B705B7057F007F000101010200000000A5
:104A96000000000000000000000000000000000010
:104AA6000000000000000000000000000000000000
:104AB60000000000000000000000000000000000F0
:104AC6000000000000000000000000808080000060
:104AD600000000000000000000000000008080C010
:104AE600C000000000000000000000000000000000
:104AF60000000000000000000000000000000000B0
:104B0600000000000000000000000000000000009F
:104B1600000000000000000000000000000000008F
:104B260080C0E0F0F8FCF8E00000000000000000A3
:104B3600000000000000000000808080808000806F
:104B46008000000000808080808000FFFFFF000062
:104B560000008080808000008080000080FFFF8051
:104B660080008080008080808000808000000000BF
:104B760000808000008C8E84000080F8F8F88000A9
:104B8600000000000000000000000000F0F0F0F05F
:104B9600F0F0F0F0F0F0F0F0E0E0C08000E0FCFEB5
:104BA600FFFFFF7FFFFFFFFFFF0000000000000088
:104BB60000000000000000FEFFC70101010183FFA5
:104BC600FF00007CFEC70101010183FFFFFF0038E3
:104BD600FEC78301010183C7FFFF000001FFFF013C
:104BE6000100FFFF0701010100007FFF80000000B8
:104BF600FFFF7F0000FFFFFF000001FFFFFF010036
:104C0600000000000000000000000000030F3F7FCE
:104C16007FFFFFFFFFFFFFFFE7C7C78F8F9FBFFF26
:104C2600FFC3C0F0FFFFFFFFFFFCFCFCFCFCFCFC2D
:104C3600FCF8F8F0F0E0C0000103030303030103EE
:104C46000300000000010303030301010301000048
:104C56000001030303030101030300000003030033
:104C6600000003030000000000000001030303032B
:104C7600030100000001030100000003030100001E
:104C8600000000000000000000000000000000809E
:104C9600C0E0F0F9FFFFFFFFFF3F1F0F87C7F7FFD9
:104CA600FF1F1F3DFCF8F8F8F87C7DFFFFFFFFFFB4
:104CB600FFFFFF7F3F0F07003030000000000000BD
:104CC60000000000000000000000000000000000DE
:104CD600FEFEFC00000000000000000000000000D6
:104CE600000000000000000000E0C000000000001E
:104CF600000000000000303000000000000000004E
:104D060000000000000000000000000000C0FEFFE0
:104D1600FFFFFFFFFFFFFFFF7F7F3F1F0F071F7F85
:104D2600FFFFF8F8FFFFFFFFFFFEF8E000000001BD
:104D36000000000000000000FEFE000000FCFEFC7B
:104D46000C06060EFCF80000F0F81C0E0606060C13
:104D5600FFFFFF0000FEFE00000000FCFEFC001846
:104D66003C7E66E6CE84000006FFFF0606FCFEFCDF
:104D76000C0606060000FEFE0000C0F8FC4E464685
:104D8600464E7C7840183C76E6CECC80000000008B
:104D9600000000000000000000000000000000000D
:104DA60001070F1F1F3F3F3F3F1F0F03000000007B
:104DB60000000000000000000F0F0000000F0F0FA2
:104DC600000000000F0F000003070E0C18180C0659
:104DD6000F0F0F0000010F0E0C180C0F0701000437
:104DE6000E0C180C0F070000000F0F00000F0F0F1E
:104DF6000000000000000F0F00000007070C0C1851
:104E06001C0C060600040E0C180C0F070000000010
:104E1600000000000000000000000000000000008C
:104E2600000000000000000000000000000000007C
:104E3600000000000000000000000000000000006C
:104E4600000000000000000000000000000000005C
:104E5600000000000000000000000000000000004C
:104E6600000000000000000000000000000000003C
:104E7600000000000000000000000000000000002C
:104E86000000000000000000000000000000EA062C
:104E96008000000103070F1F3F7F0080C0E0F0F88D
:104EA600FCFE00000000C11094101412FB0D8D10C2
:104EB6007A106B10000000007E0BB8051412D80E95
:104EC6009F08FB0D240EFC0D180E0C0E2B0EFB0D71
:104ED60044094309E5054207440D270DAF0C500C64
:104EE600302E312E300054616E6B20466C75746521
:104EF6006E005A756D204E6F726D616C62657472CC
:104F06006965620054616E6B204C656E7A656E0051
:104F16004173796E6368726F6E62657472696562F9
:104F26000053796E6368726F6E626574726965624A
:104F3600004845434B00425547006765666C7574EB
:104F460065740067656C656E7A7400253573252572
:064F560000257325250073
:00000001FF
